S018000041726475696E6F5F427261696C6C65722E73726563AE
S11300000C9462000C948A000C948A000C948A006C
S11300100C948A000C948A000C948A000C948A0034
S11300200C948A000C948A000C948A000C948A0024
S11300300C948A000C948A000C948A000C948A0014
S11300400C94C0030C948A000C9441020C94730227
S11300500C948A000C948A000C948A000C948A00F4
S11300600C948A000C948A0000000008000201002D
S1130070000304070000000000000000010204085F
S113008010204080010204081020010204081020FE
S1130090040404040404040402020202020203032A
S11300A003030303000000002300260029000000CE
S11300B00000250028002B00000000002400270079
S11300C02A00A30211241FBECFEFD8E0DEBFCDBFAC
S11300D011E0A0E0B1E0E8E5FAE002C005900D927D
S11300E0AA34B107D9F722E0AAE4B1E001C01D9215
S11300F0AC30B207E1F710E0C2E6D0E004C02197CB
S1130100FE010E942405C136D107C9F70E94D1021D
S11301100C942A050C94000026E040E855E260E0C7
S113012070E086E691E00E94DC0161E088E00E94D4
S11301306E0460E089E00E946E0460E08AE00E9440
S11301406E0460E08BE00C946E0461E088E00C9433
S1130150AA048BE00E94D904019709F04BC060E027
S113016071E086E691E00E941F0389E00E94D904B1
S11301708130910529F490934B0180934A0104C086
S113018010924B0110924A018AE00E94D9048130F6
S1130190910529F490934D0180934C0104C0109271
S11301A04D0110924C010E94A50060914A0170918A
S11301B04B014AE050E086E691E00E94B903609169
S11301C04C0170914D014AE050E086E691E00E94B6
S11301D0B90364E171E086E691E00E941F0360E0E8
S11301E088E00E94AA046EE271E086E691E00E9433
S11301F01F03AFCF6EE271E086E691E00C941F031B
S1130200FC01918D228D892F90E0805C9F4F821B91
S113021091098F7399270895FC01918D828D981708
S113022031F0828DE80FF11D858D90E008958FEFF8
S11302309FEF0895FC01918D828D981761F0828D56
S1130240DF01A80FB11D5D968C91928D9F5F9F7306
S1130250928F90E008958FEF9FEF0895FC01538DE6
S1130260448D252F30E0842F90E0821B930B54178C
S113027010F0CF9608950197089589E992E0892BAB
S113028049F080E090E0892B29F00E9499028111C5
S11302900C9400000895FC01848DDF01A80FB11DAA
S11302A0A35ABF4F2C91848D90E001968F739927A8
S11302B0848FA689B7892C93A089B1898C91837086
S11302C080648C93938D848D981306C00288F3897F
S11302D0E02D80818F7D80830895EF92FF920F93AC
S11302E01F93CF93DF93EC0181E0888F9B8D8C8DDE
S11302F0981305C0E889F989808185FD26C0F62E0A
S11303000B8D10E00F5F1F4F0F731127E02E8C8DA4
S1130310E8120CC00FB607FCFACFE889F98980818E
S113032085FFF5CFCE010E944B01F1CF8B8DFE01ED
S1130330E80FF11DE35AFF4FF0829FB7F8940B8F3B
S1130340EA89FB89808180620AC09FB7F894EE89AC
S1130350FF896083E889F989808183708064808360
S11303609FBF81E090E0DF91CF911F910F91FF90AB
S1130370EF900895CF93DF93EC01888D8823C9F023
S1130380EA89FB89808185FD05C0A889B9898C919A
S113039086FD0FC00FB607FCF5CF808185FFF2CF35
S11303A0A889B9898C9185FFEDCFCE010E944B01BC
S11303B0E7CFDF91CF910895CF92DF92EF92FF9232
S11303C01F93CF93DF93EC016A017B01122FE8891D
S11303D0F98982E080834115514E61057105B1F0C0
S11303E060E079E08DE390E0A70196010E940205A8
S11303F0DA01C9010197A109B109B695A7959795A5
S113040087959C01211580E13807A8F0E889F989CE
S1130410108260E874E88EE190E0A70196010E94E2
S11304200205DA01C9010197A109B109B695A79599
S1130430979587959C01EC85FD853083EE85FF8536
S11304402083188EEC89FD891083EA89FB898081D9
S113045080618083EA89FB89808188608083EA895E
S1130460FB89808180688083EA89FB8980818F7D14
S11304708083DF91CF911F91FF90EF90DF90CF9019
S113048008951F920F920FB60F9211242F938F93FA
S11304909F93EF93FF93E0917601F0917701808130
S11304A0E0917C01F0917D0182FD12C090818091E8
S11304B07F018F5F8F7320918001821751F0E0914B
S11304C07F01F0E0EA59FE4F958F80937F0101C0D0
S11304D08081FF91EF919F918F912F910F900FBE8B
S11304E00F901F9018951F920F920FB60F92112420
S11304F02F933F934F935F936F937F938F939F9328
S1130500AF93BF93EF93FF9386E691E00E944B0174
S1130510FF91EF91BF91AF919F918F917F916F91D7
S11305205F914F913F912F910F900FBE0F901F90AD
S1130530189586E691E00E94000121E0892B09F4D8
S113054020E0822F0895E6E6F1E01382128288EE1D
S113055093E0A0E0B0E084839583A683B7838CE323
S113056091E09183808385EC90E09587848784EC87
S113057090E09787868780EC90E0918B808B81EC6C
S113058090E0938B828B82EC90E0958B848B86EC4D
S113059090E0978B868B118E128E138E148E089595
S11305A008950E940A040E94D0020E948C00CDE3A8
S11305B0D1E00E94A9002097E1F30E943D01F9CF08
S11305C0CF92DF92EF92FF920F931F93CF93DF931B
S11305D06C017A018B01C0E0D0E0CE15DF0581F01B
S11305E0D8016D918D01D601ED91FC910190F081BE
S11305F0E02DC6010995892B11F02196EECF7E01DD
S1130600C701DF91CF911F910F91FF90EF90DF9081
S1130610CF9008956115710579F0FB0101900020D8
S1130620E9F73197AF01461B570BDC01ED91FC91C3
S11306300280F381E02D099480E090E008950C9409
S11306400A03DC01ED91FC910190F081E02D099405
S11306508F929F92AF92BF92EF92FF920F931F934C
S1130660CF93DF93CDB7DEB7A1970FB6F894DEBF73
S11306700FBECDBF7C01FA01CB0119A2223008F4D0
S11306802AE08E010F5D1F4F822E912CA12CB12CDC
S1130690BF01A50194010E940205F901CA0101509C
S11306A011096A3010F4605D01C0695CD8016C9373
S11306B0232B242B252B61F7B801C7010E940A03C1
S11306C0A1960FB6F894DEBF0FBECDBFDF91CF91D8
S11306D01F910F91FF90EF90BF90AF909F908F90DC
S11306E00895CF92DF92EF92FF920F931F93CF93CF
S11306F0DF932115310581F4DC01ED91FC9101902A
S1130700F081E02D642FDF91CF911F910F91FF9025
S1130710EF90DF90CF9009942A30310501F577FFEF
S11307201DC06A017B01EC016DE20E9421038C0172
S113073044275527BA014C195D096E097F092AE03F
S1130740CE010E942803800F911FDF91CF911F914A
S11307500F91FF90EF90DF90CF9008952AE0DF9102
S1130760CF911F910F91FF90EF90DF90CF900C9459
S113077028039A01AB01770F660B770B0C94710376
S11307801F920F920FB60F9211242F933F938F93C2
S11307909F93AF93BF938091040290910502A0911F
S11307A00602B09107023091030223E0230F2D3794
S11307B020F40196A11DB11D05C026E8230F029661
S11307C0A11DB11D2093030280930402909305029E
S11307D0A0930602B0930702809108029091090247
S11307E0A0910A02B0910B020196A11DB11D809344
S11307F0080290930902A0930A02B0930B02BF91DE
S1130800AF919F918F913F912F910F900FBE0F90B9
S11308101F901895789484B5826084BD84B58160F6
S113082084BD85B5826085BD85B5816085BDEEE6F4
S1130830F0E0808181608083E1E8F0E010828081D3
S113084082608083808181608083E0E8F0E0808141
S113085081608083E1EBF0E0808184608083E0EB61
S1130860F0E0808181608083EAE7F0E08081846049
S113087080838081826080838081816080838081A5
S1130880806880831092C1000895833081F028F439
S1130890813099F08230A1F008958730A9F0883032
S11308A0B9F08430D1F4809180008F7D03C08091B1
S11308B080008F7780938000089584B58F7702C07D
S11308C084B58F7D84BD08958091B0008F7703C077
S11308D08091B0008F7D8093B0000895CF93DF9313
S11308E090E0FC01E458FF4F2491FC01E057FF4FD6
S11308F08491882361F190E0880F991FFC01E854EA
S1130900FF4FC591D491FC01E255FF4FA591B491DD
S1130910611109C09FB7F894888120958223888348
S1130920EC912E230BC0623061F49FB7F894888158
S1130930322F309583238883EC912E2B2C939FBFE9
S113094006C08FB7F894E8812E2B28838FBFDF91E0
S1130950CF9108951F93CF93DF93282F30E0F901AF
S1130960E859FF4F8491F901E458FF4FD491F901FC
S1130970E057FF4FC491CC23C1F0162F81110E9480
S11309804504EC2FF0E0EE0FFF1FE255FF4FA59159
S1130990B4919FB7F894111104C08C91D095D823C9
S11309A002C0EC91DE2BDC939FBFDF91CF911F91AE
S11309B00895CF93DF93282F30E0F901E859FF4FD2
S11309C08491F901E458FF4FD491F901E057FF4FA6
S11309D0C491CC2391F081110E944504EC2FF0E0E6
S11309E0EE0FFF1FEC55FF4FA591B491EC91ED2351
S11309F081E090E021F480E002C080E090E0DF91AB
S1130A00CF910895A1E21A2EAA1BBB1BFD010DC0B4
S1130A10AA1FBB1FEE1FFF1FA217B307E407F507AA
S1130A2020F0A21BB30BE40BF50B661F771F881F86
S1130A30991F1A9469F760957095809590959B011C
S1130A40AC01BD01CF010895EE0FFF1F0590F49195
S10B0A50E02D0994F894FFCF96
S1130A585472616E736D697373696F6E2042656752
S1130A68696E73000A20456E64204F462050416326
S1130A784B455420524543455054494F4E000A2093
S1130A8849414D204F555400000000006D01E0021B
S10D0A982E01BA0100011A010C013D
S9030000FC
