:100000000C9463000C94F0040C94C9040C94170530
:100010000C9417050C9417050C948B000C948B0012
:100020000C948B000C948B000C948B000C948B0024
:100030000C948B000C948B000C948B000C948B0014
:100040000C947F040C948B000C944D040C942704A6
:100050000C948B000C948B000C948B000C948B00F4
:100060000C948B000C948B000000000024002700EF
:100070002A0000000008000201000003040700003D
:1000800000000000000000000000230026002900FE
:1000900000000000250028002B00040404040404D0
:1000A0000404020202020202030303030303010227
:1000B00004081020408001020408102001020408F6
:1000C00010209105AD0911241FBECFEFD8E0DEBF8F
:1000D000CDBF22E0AEE4B1E001C01D92A33AB20769
:1000E000E1F711E0A0E0B1E0E6E5F4E102C005903F
:1000F0000D92AE34B107D9F710E0C2E6D0E004C0EB
:100100002197FE010E94130AC136D107C9F70E9448
:100110005C060C941E0A0C940000EFE9F1E0A08943
:10012000B18982E08C93A485B5851C92A685B7859C
:100130008FEC8C93108EA489B58986E08C93A2896C
:10014000B3898C9180618C93A289B3898C918860EA
:100150008C93A289B3898C9180688C930288F389EF
:10016000E02D80818F7D80830895CF92DF92EF9282
:10017000FF920F931F93CF93DF936C017A018B0152
:10018000C0E0D0E0CE15DF0581F0D8016D918D0182
:10019000D601ED91FC910190F081E02DC601099509
:1001A000892B11F02196EECF7E01C701DF91CF910F
:1001B0001F910F91FF90EF90DF90CF9008950895D9
:1001C000FC01538D448D252F30E0842F90E0821B5D
:1001D000930B541710F0CF96089501970895FC01E2
:1001E000918D828D981761F0828DDF01A80FB11D6E
:1001F0005D968C91928D9F5F9F73928F90E0089592
:100200008FEF9FEF0895FC01918D828D981731F04B
:10021000828DE80FF11D858D90E008958FEF9FEF9F
:100220000895FC01918D228D892F90E0805C9F4F75
:10023000821B91098F73992708958FE991E00E949D
:10024000110121E0892B09F420E0822F0895FC019F
:10025000848DDF01A80FB11DA35ABF4F2C91848D4F
:1002600090E001968F739927848FA689B7892C9384
:10027000A089B1898C91837080648C93938D848DD7
:10028000981306C00288F389E02D80818F7D8083DA
:100290000895EF92FF920F931F93CF93DF93EC019A
:1002A00081E0888F9B8D8C8D981305C0E889F98932
:1002B000808185FD26C0F62E0B8D10E00F5F1F4F4D
:1002C0000F731127E02E8C8DE8120CC00FB607FCBF
:1002D000FACFE889F989808185FFF5CFCE010E94A8
:1002E0002701F1CF8B8DFE01E80FF11DE35AFF4F7F
:1002F000F0829FB7F8940B8FEA89FB898081806236
:100300000AC09FB7F894EE89FF896083E889F9896C
:1003100080818370806480839FBF81E090E0DF9163
:10032000CF911F910F91FF90EF900895CF93DF939E
:10033000EC01888D8823C9F0EA89FB89808185FDDD
:1003400005C0A889B9898C9186FD0FC00FB607FC3E
:10035000F5CF808185FFF2CFA889B9898C9185FF7F
:10036000EDCFCE010E942701E7CFDF91CF91089515
:1003700080E090E0892B29F00E941D0181110C94EE
:1003800000000895833081F028F4813099F08230A4
:10039000A1F008958730A9F08830B9F08430D1F405
:1003A000809180008F7D03C0809180008F77809343
:1003B0008000089584B58F7702C084B58F7D84BD99
:1003C00008958091B0008F7703C08091B0008F7D39
:1003D0008093B0000895CF93DF93E4E7F0E0849139
:1003E000E0EBF0E0D491ECE9F0E0C491CC2391F0A3
:1003F00081110E94C201EC2FF0E0EE0FFF1FEA57BF
:10040000FF4FA591B491EC91ED2381E090E021F4B0
:1004100080E002C080E090E0DF91CF9108951F93CB
:10042000CF93DF93282F30E0F901EE58FF4F8491EE
:10043000F901E255FF4FD491F901E656FF4FC491FF
:10044000CC23C1F0162F81110E94C201EC2FF0E0E5
:10045000EE0FFF1FE057FF4FA591B4919FB7F8949F
:10046000111104C08C91D095D82302C0EC91DE2BE1
:10047000DC939FBFDF91CF911F910895CF93DF93BE
:1004800090E0FC01E255FF4F2491FC01E656FF4F3E
:100490008491882361F190E0880F991FFC01E8594D
:1004A000FF4FC591D491FC01E057FF4FA591B49146
:1004B000611109C09FB7F8948881209582238883B1
:1004C000EC912E230BC0623061F49FB7F8948881C1
:1004D000322F309583238883EC912E2B2C939FBF52
:1004E00006C08FB7F894E8812E2B28838FBFDF9149
:1004F000CF9108953FB7F894809193019091940122
:10050000A0919501B091960126B5A89B05C02F3FFB
:1005100019F00196A11DB11D3FBFBA2FA92F982F29
:100520008827820F911DA11DB11DBC01CD0142E0A4
:10053000660F771F881F991F4A95D1F708958F92EC
:100540009F92AF92BF92CF92DF92EF92FF926B0198
:100550007C010E947A024B015C01C114D104E104C8
:10056000F104F1F00E947A02DC01CB0188199909AB
:10057000AA09BB09883E9340A105B10570F321E0AB
:10058000C21AD108E108F10888EE880E83E0981EAF
:10059000A11CB11CC114D104E104F10419F7DDCF91
:1005A000FF90EF90DF90CF90BF90AF909F908F9093
:1005B00008952FB7F89460918F0170919001809108
:1005C0009101909192012FBF089508952091990172
:1005D00030919A012817390771F490919701809111
:1005E0009801981741F0E0919701F0E0E25BFE4F2F
:1005F000808190E008958FEF9FEF08951F93CF9330
:10060000DF93DC015C968D919C915D97009739F4A6
:1006100021E030E013963C932E9312973BC0519605
:10062000ED91FC91529750962C915097322F309526
:100630001FB75E964C915E97742F727041FD609566
:10064000F8944081772311F0422B01C0432340836B
:10065000EC012197F1F748E0508160FF02C0522B76
:1006600001C053235083EC012197F1F76695415067
:1006700099F78081772319F08323808302C0282B88
:1006800020831FBF5C968D919C915D970197F1F738
:1006900081E090E0DF91CF911F9108952091990121
:1006A00030919A012817390771F4809198012091AF
:1006B000970190E0805C9F4F821B910960E470E09D
:1006C0000E94EB09089580E090E00895209199013F
:1006D00030919A0128173907B9F4909197018091C8
:1006E0009801981789F0E0919701F0E0E25BFE4FE6
:1006F00080812091970130E02F5F3F4F2F73332788
:100700002093970190E008958FEF9FEF089508954B
:1007100080E090E0089561E083E10E940F028FE5A0
:1007200090E00197F1F760E083E10C940F02CF9322
:10073000DF9361E085E00E940F0261E089E00E94A2
:100740000F020E94EB0121E0892B09F420E0CBECA1
:10075000D7E0211112C061E088E00E940F02CE01B3
:100760000197F1F760E088E00E940F02CE01019747
:10077000F1F70E94EB01892B71F360E089E00E94A0
:100780000F0260E085E0DF91CF910C940F026115BC
:10079000710579F0FB0101900020E9F73197AF0175
:1007A000461B570BDC01ED91FC910280F381E02D9B
:1007B000099480E090E008958F929F92AF92BF924B
:1007C000EF92FF920F931F93CF93DF93CDB7DEB7D6
:1007D000A1970FB6F894DEBF0FBECDBF7C01FA0122
:1007E000CB0119A2223008F42AE08E010F5D1F4FC1
:1007F000822E912CA12CB12CBF01A50194010E9445
:10080000C909F901CA01015011096A3014F4605D87
:1008100001C0695CD8016C93232B242B252B61F735
:10082000B801C7010E94C703A1960FB6F894DEBFB6
:100830000FBECDBFDF91CF911F910F91FF90EF9031
:10084000BF90AF909F908F9008950E94190A1F92B9
:100850000F920FB60F9211242F933F934F935F93F4
:100860006F937F938F939F93AF93BF93EF93FF9378
:100870008FE991E00E942701FF91EF91BF91AF9125
:100880009F918F917F916F915F914F913F912F91A8
:100890000F900FBE0F901F9018951F920F920FB6DA
:1008A0000F9211242F938F939F93EF93FF93E091D7
:1008B000AF01F091B0018081E091B501F091B601F6
:1008C00082FD12C090818091B8018F5F8F7320915B
:1008D000B901821751F0E091B801F0E0E156FE4F06
:1008E000958F8093B80101C08081FF91EF919F9116
:1008F0008F912F910F900FBE0F901F9018951F9200
:100900000F920FB60F9211242F933F938F939F93C3
:10091000AF93BF9380918F0190919001A09191012D
:10092000B091920130918E0123E0230F2D3720F4F6
:100930000196A11DB11D05C026E8230F0296A11D39
:10094000B11D20938E0180938F0190939001A0930D
:100950009101B09392018091930190919401A091A3
:100960009501B09196010196A11DB11D809393014F
:1009700090939401A0939501B0939601BF91AF918C
:100980009F918F913F912F910F900FBE0F901F90CD
:1009900018951F920F920FB60F9211242F933F9329
:1009A0004F935F936F937F938F939F93AF93BF9377
:1009B000EF93FF93E0910201F09103010995FF91FC
:1009C000EF91BF91AF919F918F917F916F915F91C7
:1009D0004F913F912F910F900FBE0F901F90189540
:1009E0001F920F920FB60F9211242F933F934F93A4
:1009F0005F936F937F938F939F93AF93BF93EF9387
:100A0000FF93E0910001F09101010995FF91EF91B1
:100A1000BF91AF919F918F917F916F915F914F9116
:100A20003F912F910F900FBE0F901F9018951F921E
:100A30000F920FB60F9211242F933F934F935F9312
:100A40006F937F938F939F93AF93BF93EF93FF9396
:100A5000E0919901F0919A01309709F451C0968D77
:100A6000A685B785858591FF04C09C91892329F4CB
:100A700047C09C91892309F043C0A389B4899C9104
:100A80008589809589238C93868997890197F1F7C9
:100A9000608D718DA685B785558538E020E0CB0146
:100AA0000197F1F7822F90E095958795282F4C912B
:100AB000452309F02068315091F7868D81FD2095FE
:100AC0008091980190E001968F739927309197015A
:100AD000381749F0A0919801B0E0A25BBE4F2C936B
:100AE0008093980103C0868D8160868F828D938D5F
:100AF0000197F1F7A389B4899C918589892B8C93FF
:100B0000FF91EF91BF91AF919F918F917F916F91E5
:100B10005F914F913F912F910F900FBE0F901F90BB
:100B200018951092A2011092A10188EE93E0A0E026
:100B3000B0E08093A3019093A401A093A501B0938A
:100B4000A60128E031E03093A00120939F0125EC1D
:100B500030E03093AC012093AB0124EC30E03093D3
:100B6000AE012093AD0120EC30E03093B001209332
:100B7000AF0121EC30E03093B2012093B10122ECBF
:100B800030E03093B4012093B30126EC30E0309391
:100B9000B6012093B5011092B8011092B9011092DC
:100BA000BA011092BB0110924202109243021092BD
:100BB000440210924502109246021092470210928F
:100BC00048021092490210924A0210924B0210926F
:100BD0004C0210924D0210924E0210924F0210924F
:100BE0005002109251021092870210928602809356
:100BF000880290938902A0938A02B0938B028AE1C3
:100C000091E0909385028093840210929B0210924F
:100C10009A0210929D0210929C0210929F021092D2
:100C20009E021092A1021092A0026091A2026E7F19
:100C30006D7F6093A2026695617081E068278BE00A
:100C40000E940F0261E08BE00E943E02E9EBF0E0BF
:100C5000E491E0939402E5EAF0E0E491F0E0EE0F35
:100C6000FF1FE057FF4F85919491909396028093D8
:100C7000950260E08AE00E943E028091A20281FD1E
:100C800004C061E08AE00E940F028AE08093900233
:100C9000E8EBF0E0E491E0939102E4EAF0E0E49123
:100CA000F0E0EE0FFF1FEA57FF4F8591949190936C
:100CB0009302809392020895CF93DF9300D0CDB733
:100CC000DEB7789484B5826084BD84B5816084BDCC
:100CD00085B5826085BD85B5816085BD80916E00DA
:100CE000816080936E00109281008091810082600B
:100CF0008093810080918100816080938100809148
:100D000080008160809380008091B1008460809336
:100D1000B1008091B00081608093B00080917A0032
:100D2000846080937A0080917A00826080937A0058
:100D300080917A00816080937A0080917A00806847
:100D400080937A001092C10010928002109281026A
:100D5000109282021092830210923E0210923F0281
:100D600010924002109241020E94D9026B017C0154
:100D70004B015C0188EB880E8BE0981EA11CB11C16
:100D80000E94D9026C157D058E059F0528F08616F8
:100D90009706A806B906A0F78FE991E090937F0225
:100DA00080937E020E948D000E94D90260933E02D1
:100DB00070933F02809340029093410268E271E099
:100DC00080917E0290917F020E94C7030E94D90207
:100DD0006B017C014B015C019AE0890E911CA11C06
:100DE000B11C0E94D9026C157D058E059F0528F067
:100DF00086169706A806B906A0F781E080935202EE
:100E000061E088E00E943E0261E089E00E943E02CB
:100E100061E08EE00E943E0261E08FE00E943E02AF
:100E200061E084E00E943E0260E082E00E943E02B7
:100E300061E087E00E943E0261E086E00E943E029F
:100E400061E085E00E943E0260E083E00E943E0295
:100E500061E083E10E943E0261E089E00E940F02AE
:100E600060E08FE00E940F0260E083E10E940F02C9
:100E700087E993E0909303018093020180916900D8
:100E8000837F846080936900E99A0E94EB0121E0EE
:100E9000892B09F420E00BEC17E0211112C061E06E
:100EA00088E00E940F02C8010197F1F760E088E036
:100EB0000E940F02C8010197F1F70E94EB01892BF4
:100EC00071F360E089E00E940F0261E084E00E941B
:100ED0000F0210929F0210929E0210929D02109299
:100EE0009C0210929B0210929A028DE991E09093DD
:100EF000A1028093A00290919002963108F058C010
:100F00002DEB30E030939B0220939A022BE931E0E5
:100F100030939D0220939C022CE231E030939F029B
:100F200020939E0240916800983058F031E09E3046
:100F300008F430E021E0822F01C0880F3A95EAF7EB
:100F400001C084E0842B80936800983038F09E3094
:100F500040F0963148F020E030E008C02DE630E067
:100F600005C02BE630E002C02CE630E0309398025A
:100F700020939702983030F481E001C0880F9A9551
:100F8000EAF70EC0292F30E09E3018F428503109BE
:100F900002C02E50310981E001C0880F2A95EAF77E
:100FA000809399028091A0029091A1020197F1F79C
:100FB00080919E0290919F02892B49F1E0919901C5
:100FC000F0919A01A2E0E438FA0709F1309739F07C
:100FD000A389B4899C918589809589238C9380917C
:100FE000A2028E7F8093A202109298011092970124
:100FF00084E892E090939A0180939901E09197029E
:10100000F0919802908180919902892B80830E94AF
:101010008D001E01B4E02B0E311C93E6C92E9BE01F
:10102000D92E2BECE22E27E0F22E0E94D902672B5C
:10103000682B692B41F40E94D90262307105810549
:10104000910508F413C10E94D90200919B011091EF
:101050009C0120919D0130919E01601771078207CC
:10106000930740F460939B0170939C0180939D01D2
:1010700090939E0100919B0110919C0120919D01F4
:1010800030919E014B015C01801A910AA20AB30AB9
:10109000950184010A3F11052105310508F4E6C0D8
:1010A00060939B0170939C0180939D0190939E019E
:1010B00084EF91E0A0E0B0E080934A0290934B026D
:1010C000A0934C02B0934D0210924E0210924F0228
:1010D000109250021092510280914202909143026C
:1010E000A0914402B091450280934602909347023A
:1010F000A0934802B09349020E94D9026093420231
:101100007093430280934402909345020E94D90257
:1011100060933E0270933F0280934002909341029D
:101120000E94D9022B013C016AE371E080917E02AA
:1011300090917F020E94C7032AE041E050E060E006
:1011400070E080917E0290917F020E94DC0361E456
:1011500071E080917E0290917F020E94C7032AE095
:10116000B301A20180917E0290917F020E94DC0374
:1011700063E471E080917E0290917F020E94C70338
:101180008091420290914302A0914402B0914502A5
:10119000B301A201481B590B6A0B7B0B2AE080911B
:1011A0007E0290917F020E94DC0363E471E08091F3
:1011B0007E0290917F020E94C703409142025091AB
:1011C00043026091440270914502809146029091E1
:1011D0004702A0914802B0914902481B590B6A0B83
:1011E0007B0B2AE080917E0290917F020E94DC03BB
:1011F00065E471E080917E0290917F020E94C703B6
:101200000E94D902AB01BC012AE080917E0290913C
:101210007F020E94DC0300917E0210917F0267E44E
:1012200071E0C8010E94C70367E371E0C8010E9432
:10123000C7030E94D9024B015C012B013C0195E0E0
:10124000490E511C611C711C0E94D9026815790558
:101250008A059B0508F07AC00E94D9026093420279
:1012600070934302809344029093450284E892E095
:101270000E944E0318161906C4F01A811053AAE0F2
:101280001A9F900111248981893709F43CC08A375B
:1012900009F457C0883709F056C03901660C771C2D
:1012A000620E731E00E010E014C08E010F5F1F4F2E
:1012B00084E892E00E946603F80181938F0161E067
:1012C00070E080E090E00E949F020215130581F714
:1012D000D4CF61E088E00E940F02C7010197F1F7C7
:1012E00060E088E00E940F02C7010197F1F70F5FED
:1012F0001F4F601671066CF764E670E080E090E0C6
:101300000E949F021EC060E08FE00E940F02F4EB7B
:101310001F9F3001112400E010E061E08EE00E9488
:101320000F02C6010197F1F760E08EE00E940F0204
:10133000C6010197F1F70F5F1F4F601671066CF73A
:10134000DBCF0E948B030E94B8016FCE4616570672
:101350006806790608F078CF7FCF8AE191E0909314
:101360008502809384028091990190919A0184581A
:10137000924071F4E0919702F091980290818091EF
:10138000990280958923808310929A011092990185
:101390000895A1E21A2EAA1BBB1BFD010DC0AA1FB6
:1013A000BB1FEE1FFF1FA217B307E407F50720F0CE
:1013B000A21BB30BE40BF50B661F771F881F991F49
:1013C0001A9469F760957095809590959B01AC0192
:1013D000BD01CF01089597FB072E16F4009407D0A6
:1013E00077FD09D00E94FF0907FC05D03EF49095D7
:1013F00081959F4F0895709561957F4F0895AA1B21
:10140000BB1B51E107C0AA1FBB1FA617B70710F0EF
:10141000A61BB70B881F991F5A95A9F78095909521
:10142000BC01CD010895EE0FFF1F0590F491E02D52
:10143000099481E090E0F8940C941E0A10E0C2E652
:10144000D0E004C0FE010E94130A2196C336D107E2
:06145000C9F7F894FFCF7C
:10145600E502E502000000004901B500E000960142
:101466001101EF00030100000000FE02B500880331
:10147600DF004E036603E602564D4450565F317C4C
:10148600315F564D4450560D0A00564D4450455F47
:0E149600003A323A007C005F564D445045004B
:00000001FF
