:100000000C9463000C948B000C948B000C941A03DA
:100010000C941A030C941A030C948B000C948B0010
:100020000C948B000C948B000C948B000C948B0024
:100030000C948B000C948B000C948B000C948B0014
:100040000C94D0020C948B000C949E020C947802B9
:100050000C948B000C948B000C948B000C948B00F4
:100060000C948B000C948B0000000008000201002F
:100070000003040700000000000000000000000072
:1000800023002600290000000000240027002A0089
:1000900000000000250028002B00040404040404D0
:1000A0000404020202020202030303030303010227
:1000B00004081020408001020408102001020408F6
:1000C0001020E103450611241FBECFEFD8E0DEBFAC
:1000D000CDBF11E0A0E0B1E0E6E8FDE002C0059090
:1000E0000D92A632B107D9F722E0A6E2B1E001C035
:1000F0001D92AF32B207E1F710E0C2E6D0E004C0D3
:100100002197FE010E94AB06C136D107C9F70E94B4
:10011000C3040C94B6060C940000CF92DF92EF92C9
:10012000FF920F931F93CF93DF936C017A018B01A2
:10013000C0E0D0E0CE15DF0581F0D8016D918D01D2
:10014000D601ED91FC910190F081E02DC601099559
:10015000892B11F02196EECF7E01C701DF91CF915F
:100160001F910F91FF90EF90DF90CF900895FC01C9
:10017000538D448D252F30E0842F90E0821B930B0C
:10018000541710F0CF96089501970895FC01918DB2
:10019000828D981761F0828DDF01A80FB11D5D96E9
:1001A0008C91928D9F5F9F73928F90E008958FEF57
:1001B0009FEF0895FC01918D828D981731F0828D0B
:1001C000E80FF11D858D90E008958FEF9FEF089562
:1001D000FC01918D228D892F90E0805C9F4F821BC6
:1001E00091098F739927089583E791E00E94E800B1
:1001F00021E0892B09F420E0822F0895FC01848DF1
:10020000DF01A80FB11DA35ABF4F2C91848D90E040
:1002100001968F739927848FA689B7892C93A0891B
:10022000B1898C91837080648C93938D848D9813A5
:1002300006C00288F389E02D80818F7D8083089538
:10024000EF92FF920F931F93CF93DF93EC0181E026
:10025000888F9B8D8C8D981305C0E889F9898081E2
:1002600085FD26C0F62E0B8D10E00F5F1F4F0F731C
:100270001127E02E8C8DE8120CC00FB607FCFACFC8
:10028000E889F989808185FFF5CFCE010E94FE00C3
:10029000F1CF8B8DFE01E80FF11DE35AFF4FF08285
:1002A0009FB7F8940B8FEA89FB89808180620AC02E
:1002B0009FB7F894EE89FF896083E889F989808186
:1002C0008370806480839FBF81E090E0DF91CF9155
:1002D0001F910F91FF90EF900895CF93DF93EC0162
:1002E000888D8823C9F0EA89FB89808185FD05C056
:1002F000A889B9898C9186FD0FC00FB607FCF5CF90
:10030000808185FFF2CFA889B9898C9185FFEDCFD7
:10031000CE010E94FE00E7CFDF91CF91089580E0EB
:1003200090E0892B29F00E94F40081110C940000C8
:1003300008953FB7F89480916B0190916C01A09162
:100340006D01B0916E0126B5A89B05C02F3F19F035
:100350000196A11DB11D3FBFBA2FA92F982F882745
:10036000820F911DA11DB11DBC01CD0142E0660FA0
:10037000771F881F991F4A95D1F708952091710121
:10038000309172012817390771F490916F018091B3
:100390007001981741F0E0916F01F0E0EA5DFE4FC7
:1003A000808190E008958FEF9FEF089508951F9347
:1003B000CF93DF93DC015C968D919C915D970097C4
:1003C00039F421E030E013963C932E9312973BC012
:1003D0005196ED91FC91529750962C915097322F57
:1003E00030951FB75E964C915E97742F727041FDE9
:1003F0006095F8944081772311F0422B01C043238C
:100400004083EC012197F1F748E0508160FF02C082
:10041000522B01C053235083EC012197F1F76695CD
:10042000415099F78081772319F08323808302C09C
:10043000282B20831FBF5C968D919C915D9701971F
:10044000F1F781E090E0DF91CF911F910895209125
:100450007101309172012817390771F48091700190
:1004600020916F0190E0805C9F4F821B910960E4B6
:1004700070E00E946106089580E090E00895209168
:1004800071013091720128173907B9F490916F0109
:1004900080917001981789F0E0916F01F0E0EA5DBA
:1004A000FE4F808120916F0130E02F5F3F4F2F730F
:1004B000332720936F0190E008958FEF9FEF089509
:1004C000089580E090E00895009769F0FC010190A4
:1004D0000020E9F73197AF01481B590BBC0183E7B6
:1004E00091E00C948D0080E090E008950E94B106A8
:1004F0001F920F920FB60F9211242F933F934F9399
:100500005F936F937F938F939F93AF93BF93EF937B
:10051000FF9383E791E00E94FE00FF91EF91BF916E
:10052000AF919F918F917F916F915F914F913F918B
:100530002F910F900FBE0F901F9018951F920F9242
:100540000FB60F9211242F938F939F93EF93FF93E6
:10055000E0918301F09184018081E0918901F09123
:100560008A0182FD12C0908180918C018F5F8F7310
:1005700020918D01821751F0E0918C01F0E0ED584F
:10058000FE4F958F80938C0101C08081FF91EF9188
:100590009F918F912F910F900FBE0F901F901895E4
:1005A0001F920F920FB60F9211242F933F938F93A8
:1005B0009F93AF93BF938091670190916801A09141
:1005C0006901B0916A013091660123E0230F2D3754
:1005D00020F40196A11DB11D05C026E8230F029647
:1005E000A11DB11D2093660180936701909368015E
:1005F000A0936901B0936A0180916B0190916C01A5
:10060000A0916D01B0916E010196A11DB11D809365
:100610006B0190936C01A0936D01B0936E01BF913B
:10062000AF919F918F913F912F910F900FBE0F909F
:100630001F9018951F920F920FB60F9211242F93AF
:100640003F934F935F936F937F938F939F93AF935A
:10065000BF93EF93FF93E0917101F0917201309796
:1006600009F451C0968DA685B785858591FF04C094
:100670009C91892329F447C09C91892309F043C0A8
:10068000A389B4899C918589809589238C938689D7
:1006900097890197F1F7608D718DA685B78555858E
:1006A00038E020E0CB010197F1F7822F90E095959B
:1006B0008795282F4C91452309F02068315091F7F8
:1006C000868D81FD20958091700190E001968F7359
:1006D000992730916F01381749F0A0917001B0E06F
:1006E000AA5DBE4F2C938093700103C0868D8160FC
:1006F000868F828D938D0197F1F7A389B4899C91A0
:100700008589892B8C93FF91EF91BF91AF919F9138
:100710008F917F916F915F914F913F912F910F90AA
:100720000FBE0F901F90189590E0FC01E859FF4F05
:100730002491FC01E255FF4F3491FC01E656FF4F36
:10074000E491EE2309F43CC0222339F1233091F0E7
:1007500038F42130A9F0223001F584B58F7D12C024
:10076000273091F02830A1F02430B9F48091800036
:100770008F7D03C0809180008F77809380000DC0B3
:1007800084B58F7784BD09C08091B0008F7703C096
:100790008091B0008F7D8093B000F0E0EE0FFF1FDE
:1007A000E057FF4FA591B4919FB7F894611104C031
:1007B0008C913095382302C0EC913E2B3C939FBF27
:1007C0000895CF93DF93109276011092750188EE11
:1007D00093E0A0E0B0E08093770190937801A0933C
:1007E0007901B0937A0124E031E0309374012093D1
:1007F000730125EC30E03093800120937F0124ECDD
:1008000030E0309382012093810120EC30E030937E
:1008100084012093830121EC30E030938601209302
:10082000850122EC30E0309388012093870126EC8B
:1008300030E030938A012093890110928C0110924C
:100840008D0110928E0110928F011092130210925E
:1008500012028093140290931502A0931602B09393
:10086000170286E191E0909311028093100210929A
:10087000270210922602109229021092280210924A
:100880002B0210922A0210922D0210922C026091DB
:100890002E026E7F6D7F60932E026695617081E0FF
:1008A00068278BE00E949403E9EBF0E02491E5EAED
:1008B000F0E08491882399F090E0880F991FFC0163
:1008C000EA57FF4FA591B491FC01E057FF4F859186
:1008D00094918FB7F894EC91E22BEC938FBFE9EBF6
:1008E000F0E0E491E0932002E5EAF0E0E491F0E04A
:1008F000EE0FFF1FE057FF4F8591949190932202D6
:1009000080932102E8EBF0E02491E4EAF0E08491A6
:100910008823C1F090E0880F991FFC01EA57FF4F30
:10092000C591D491FC01E057FF4FA591B4919FB7B9
:10093000F8948881E22FE0958E2388838C91E823B8
:10094000EC939FBF80912E0281FD04C061E08AE09C
:100950000E9494038AE080931C02E8EBF0E0E491AB
:10096000E0931D02E4EAF0E0E491F0E0EE0FFF1FF7
:10097000E458FF4F8591949190931F0280931E023B
:10098000DF91CF910895CF93DF93CDB7DEB7A197D5
:100990000FB6F894DEBF0FBECDBF789484B58260E9
:1009A00084BD84B5816084BD85B5826085BD85B513
:1009B000816085BD80916E00816080936E00109291
:1009C000810080918100826080938100809181000C
:1009D000816080938100809180008160809380009D
:1009E0008091B10084608093B1008091B0008160FB
:1009F0008093B00080917A00846080937A00809127
:100A00007A00826080937A0080917A00816080937E
:100A10007A0080917A00806880937A001092C100F9
:100A2000E0918301F091840182E08083E0917F0175
:100A3000F09180011082E0918101F09182018FECB0
:100A4000808310928B01E0918701F091880186E00C
:100A50008083E0918501F0918601808180618083AF
:100A6000E0918501F0918601808188608083E0912A
:100A70008501F0918601808180688083E091850105
:100A8000F091860180818F7D808310922B021092DD
:100A90002A02109229021092280210922702109224
:100AA00026028DE991E090932D0280932C02909183
:100AB0001C02963108F058C02DEB30E0309327022D
:100AC000209326022BE931E030932902209328025B
:100AD0002CE231E030932B0220932A0240916800EF
:100AE000983058F031E09E3008F430E021E0822F59
:100AF00001C0880F3A95EAF701C084E0842B809307
:100B00006800983038F09E3040F0963148F020E090
:100B100030E008C02DE630E005C02BE630E002C032
:100B20002CE630E03093240220932302983030F4F6
:100B300081E001C0880F9A95EAF70EC0292F30E0B6
:100B40009E3018F42850310902C02E50310981E03E
:100B500001C0880F2A95EAF78093250280912C0224
:100B600090912D020197F1F780912A0290912B022A
:100B7000892B49F1E0917101F091720122E0E0319D
:100B8000F20709F1309739F0A389B4899C918589DE
:100B9000809589238C9380912E028E7F80932E02E4
:100BA0001092700110926F0180E192E090937201B7
:100BB00080937101E0912302F09124029081809151
:100BC0002502892B8083C12CD12C7601C3946C2DF6
:100BD00080E192E00E94D7010E9499012B013C0123
:100BE00088EE882E83E0982EA12CB12C0E949901CA
:100BF000DC01CB0184199509A609B709883E934009
:100C0000A105B10598F381E0881A9108A108B108FF
:100C1000E8EE4E0EE3E05E1E611C711C811491042F
:100C2000A104B10419F719A2A70196018E010F5D65
:100C30001F4FCA01B9012AE030E040E050E00E94B5
:100C40007506605DF80162938F012115310541053C
:100C5000510579F7CF010E94640241E050E064E25F
:100C600071E083E791E00E948D00FFEFCF1ADF0A69
:100C7000EF0AFF0A25EFC21621E0D206E104F104D3
:100C800009F0A5CF0E948F019ECF86E191E090935D
:100C90001102809310028091710190917201805134
:100CA000924071F4E0912302F091240290818091AE
:100CB0002502809589238083109272011092710120
:100CC000089597FB072E16F4009407D077FD09D0FE
:100CD0000E94970607FC05D03EF4909581959F4FA2
:100CE0000895709561957F4F0895A1E21A2EAA1B71
:100CF000BB1BFD010DC0AA1FBB1FEE1FFF1FA217CC
:100D0000B307E407F50720F0A21BB30BE40BF50BC8
:100D1000661F771F881F991F1A9469F76095709551
:100D2000809590959B01AC01BD01CF010895AA1B50
:100D3000BB1B51E107C0AA1FBB1FA617B70710F0C6
:100D4000A61BB70B881F991F5A95A9F780959095F8
:100D5000BC01CD010895EE0FFF1F0590F491E02D29
:100D6000099481E090E0F8940C94B60610E0C2E695
:100D7000D0E004C0FE010E94AB062196C336D10725
:060D8000C9F7F894FFCF53
:100D86000000000020018D00B7006D01E800C600DC
:100D9600DA0000000000D7018D006102D6012702AB
:060DA6003F02BE010A003D
:00000001FF
